:020000040800F2
:1000000020360020AD02000875280008791A000883
:10001000712800080D0C0008714200080000000063
:1000200000000000000000000000000015020008B1
:10003000CB150008000000005902000869360008CE
:10004000C7020008C7020008C7020008C70200086C
:10005000C7020008C7020008C7020008C70200085C
:10006000C7020008C7020008C7020008C70200084C
:10007000C7020008C702000899130008C702000859
:10008000C7020008C7020008C7020008C70200082C
:1000900041420008C7020008C7020008C702000862
:1000A000C702000841370008C7020008C70200085D
:1000B000C7020008C7020008C7020008C7020008FC
:1000C000C7020008C7020008C7020008C7020008EC
:1000D000C7020008F93D0008F53E0008D53F0008BA
:1000E000C7020008C7020008C7020008C7020008CC
:1000F000C7020008C7020008C7020008C7020008BC
:10010000C7020008C7020008C7020008C7020008AB
:10011000C7020008C7020008C7020008C70200089B
:10012000C7020008C7020008C7020008C70200088B
:1001300000F002F800F05FF80AA090E8000C82449A
:100140008344AAF10107DA4501D100F054F8AFF277
:10015000090EBAE80F0013F0010F18BFFB1A43F0A5
:10016000010318472C9800004C9800000A444FF0F7
:10017000000C10F8013B13F0070408BF10F8014B06
:100180001D1108BF10F8015B641E05D010F8016B4B
:10019000641E01F8016BF9D113F0080F1EBF10F8AF
:1001A000014BAD1C0C1B09D16D1E58BF01F801CBD2
:1001B000FAD505E014F8016B01F8016B6D1EF9D555
:1001C0009142D6D37047000000230024002500266A
:1001D000103A28BF78C1FBD8520728BF30C148BFAA
:1001E0000B607047642900F0C380002070471FB582
:1001F0001FBD10B510BD00F05DFA1146FFF7F7FF07
:1002000004F066FD00F07BFA03B4FFF7F2FF03BCD5
:1002100004F0D8F9224B19680868B0E8F00F80F3B1
:100220000988BFF36F8F4FF0000080F311884EF004
:100230000D0E70470000000006480068006880F35B
:10024000088862B661B6BFF34F8FBFF36F8F00DFD0
:1002500000BF00BF08ED00E0EFF30980BFF36F8F30
:100260000F4B1A6820E9F00F106008B54FF05000EE
:1002700080F31188BFF34F8FBFF36F8F06F07EFEC0
:100280004FF0000080F31188BDE808401968086845
:10029000B0E8F00F80F30988BFF36F8F704700BF9D
:1002A0006C000020EFF3058070470000094880478C
:1002B00009480047FEE7FEE7FEE7FEE7FEE7FEE748
:1002C000FEE7FEE7FEE7FEE704480549054A064B60
:1002D0007047000079360008310100082030002006
:1002E00020360020203200202032002070470000FD
:1002F0000FB4044910B503AA029800F051F910BCDC
:100300005DF814FB500000202DE9F0410E46044634
:10031000002020622046E168884730B3252805D0B8
:10032000D4E901219047206A401CF2E7E1682046A9
:1003300000278847050018D0A5F14100192802D8E8
:1003400020354FF400673246294620462760FFF7E4
:1003500049FF40B1012804D0F61D26F007060836F3
:10036000D8E7361DD6E72846DAE7206ABDE8F081EF
:100370002DE9F0410646002410687529314616A57E
:1003800010D0AFF30080002802DA404213A507E046
:1003900031688A0701D512A502E0490704D511A5E5
:1003A000012401E0AFF3008000210A2206F12407B6
:1003B00009E0B0FBF2FCB0FBF2F302FB1C003030B2
:1003C00078541846491C0028F3D123462A46304663
:1003D000BDE8F04100F08BB8000000002D000000E7
:1003E0002B00000020000000032A40F2308010F0B3
:1003F000030C00F0158011F8013BBCF1020F6244C0
:1004000098BF11F801CB00F8013B38BF11F8013B50
:10041000A2F1040298BF00F801CB38BF00F8013BFD
:1004200011F0030300F0CE80083AC0F0088051F8C4
:10043000043B083A51F804CBA0E80810F5E7121D78
:100440005CBF51F8043B40F8043BAFF30080D20797
:1004500024BF11F8013B11F801CB48BF11F8012B63
:1004600024BF00F8013B00F801CB48BF00F8012B86
:10047000704702F0FF0343EA032242EA024200F01F
:10048000D5B84FF0000200B5134694469646203981
:1004900022BFA0E80C50A0E80C50B1F12001BFF43D
:1004A000F7AF090728BFA0E80C5048BF0CC05DF8A3
:1004B00004EB890028BF40F8042B08BF704748BFF1
:1004C00020F8022B11F0804F18BF00F8012B704765
:1004D000704770477047704710B500F0C7F8006864
:1004E00010BD10B5044600F0C1F8046010BD2DE940
:1004F000F0470D4699469246044600F124080168EB
:10050000880604D5E06921F01001216000E0012097
:10051000A84201DD471B00E00027A1697A1902EB20
:100520000900081AA0612078C00602D42046AFF363
:100530000080002608E0D4E901211AF8060090475F
:10054000206A401C761C20624E45F4DB2078C006F1
:100550000AD52046AFF3008006E0D4E9012130201F
:100560009047206A401C2062381EA7F10107F4DC86
:1005700007E0D4E9012118F805009047206A401CE3
:100580002062281EA5F10105F3DC2046AFF30080B0
:100590002078000602D50220BDE8F0870120FBE7A5
:1005A000074B70B50D467B4400F069F804462846B9
:1005B00000F078F810B14FF0FF3070BD204670BDEC
:1005C0007F46000010B5203AC0F00B80B1E818500B
:1005D000203AA0E81850B1E81850A0E81850BFF42D
:1005E000F5AF5FEA027C24BFB1E81850A0E81850CC
:1005F00044BF18C918C0BDE810405FEA827C24BF20
:1006000051F8043B40F8043B08BF7047D20728BFAD
:1006100031F8023B48BF11F8012B28BF20F8023BFC
:1006200048BF00F8012B70474FF000020429C0F0CA
:10063000128010F0030C3FF426AFCCF1040CBCF197
:10064000020F18BF00F8012BA8BF20F8022BA1EB66
:100650000C01FFF718BF5FEAC17C24BF00F8012B33
:1006600000F8012B48BF00F8012B70470048704785
:10067000BC2F002001694A1C02610878704700B550
:100680008FB0CDE901310021059105497944CDE9CB
:10069000031011466846FFF737FE0FB000BD00009B
:1006A000E5FFFFFF007B00F08000704700487047C7
:1006B000BC2F00207546FFF7F9FFAE4605006946DE
:1006C000534620F00700854618B020B5FFF7FCFD23
:1006D000BDE820404FF000064FF000074FF0000843
:1006E0004FF0000B21F00701AC46ACE8C009ACE8C4
:1006F000C009ACE8C009ACE8C0098D46704710B528
:100700000446AFF300802046BDE81040FFF77CBDF3
:1007100021B1826842F00102826003E0826822F027
:10072000010282607047000010B5044612488442FE
:1007300008D10121401502F0EBFD0021601502F007
:10074000E7FD17E00D48844208D10121001502F0B1
:10075000DFFD0021201502F0DBFD0BE0084884429C
:1007600008D10121C80302F0D3FD00214FF400405D
:1007700002F0CEFD10BD0000002401400028014021
:10078000003C0140014600208A6802F004020AB1E0
:10079000012000E0002070470146C86C80B270471D
:1007A0000246002013680B400BB1012000E000203E
:1007B0007047014600208A6802F008020AB1012051
:1007C00000E000207047000030B502460020002302
:1007D00050680F4C20400D790C6844EA05242043F2
:1007E000506090680B4C2040D1E902542C434D7965
:1007F00044EA450420439060D06A20F470000C7CE9
:10080000641EE4B2234340EA0350D06230BD0000CE
:10081000FFFEF0FFFDF7F1FFF0B504460D460020A6
:100820000021092D11DDE068A5F10A0606EB460757
:10083000072606FA07F18843A5F10A0606EB4606E5
:1008400003FA06F10843E0600CE0206905EB450778
:10085000072606FA07F1884305EB450603FA06F179
:1008600008432061072A0FDA606B561E06EB8607E5
:100870001F2606FA07F18843561E06EB860605FA80
:1008800006F10843606322E00D2A0FDA206BD61FC1
:1008900006EB86071F2606FA07F18843D61F06EBEC
:1008A000860605FA06F10843206310E0E06AA2F12B
:1008B0000D0606EB86071F2606FA07F18843A2F10C
:1008C0000D0606EB860605FA06F10843E062F0BD68
:1008D000816841F008018160704721B1826842F46B
:1008E000A002826003E0826822F4A0028260704766
:1008F000816841F004018160704700002DE9FE4FDE
:100900003B48006864280BD900203A4908703848F1
:10091000006842F21071884202D9C8203449086048
:1009200034480078002855D000F084F83248007828
:1009300007F008FC80460022304B07F037FA0646E5
:1009400000222F4B07F082FDCDE900012D48B0F9C0
:10095000000007F0E0FB0446DDE9002307F042FC5D
:10096000824607F07BFB029003F0B2F9264908604B
:100970002649B1F9001001EB4101880003F0F8F9B4
:10098000234908601C48007808F020F9834607F0E6
:1009900039FF804600221F4B07F008FA0646002266
:1009A0001D4B07F047F9044607F012F9824602F0A2
:1009B00029FD1A4908601A480078012806D10E4816
:1009C000007818B90120174908700EE00020154979
:1009D00008700AE0002014490880144908800A4978
:1009E00008600B49086012490860BDE8FE8F0000EE
:1009F000500100204F01002043010020000016405C
:100A000000C052403C010020740100203A01002047
:100A1000780100200000344000001840EC00002065
:100A200056010020550100203E0100204001002019
:100A3000F4000020154989787D39154A1180134941
:100A4000C9787D39134A1180104909797D39124AD4
:100A500011800E4949797D39104A11800B498979F5
:100A60000F4A11700949C979C1F380000D4909780D
:100A700021B9012802D101210A4A11700349C9791B
:100A8000C1F34001084A117070470000C401002002
:100A90003A0100203C0100203E01002040010020DE
:100AA00043010020540100205601002000B587B00A
:100AB0000121042002F01CFC0121082002F018FC96
:100AC0000121480202F014FC4FF4004002F0E4FB64
:100AD0001320ADF8180000208DF81B0006A9184857
:100AE00000F088FD1748FFF71FFE002001908DF8E9
:100AF000080001208DF809004FF4602003900020C9
:100B0000049003208DF8140001A90E48FFF75CFE45
:100B100001210C48FFF7FCFD0A48FFF7D9FE00BF92
:100B20000848FFF746FE0028FAD10648FFF7E0FE26
:100B300000BF0448FFF726FE0028FAD107B000BD29
:100B400000080140002401402DE9F05F04468B4677
:100B500091469A465946484608F088F960606168AF
:100B6000206A07F07BFE20622349206A08F042F9E0
:100B700001D2214820622149206A08F03BF801D2C5
:100B80001E482062C4F824A0616AA06908F066F8D3
:100B90000646216A606908F061F8074661682069C5
:100BA00008F05CF88046394607F058FE05463146A5
:100BB00007F054FEE0616068A060E06907F022FE83
:100BC000074600220E4B07F00DFB054607F000F824
:100BD00020600C49206808F00DF902D20948206015
:100BE00006E00949206808F005F801D206482060AF
:100BF0002068BDE8F09F000000803B4500803BC5B9
:100C00000000F03F0020CB450020CBC500BFFEE731
:100C100010B50021837A012202FA03F13D4A1268DD
:100C200042F001023B4B1A603A4A1C3212688A4376
:100C3000384B1C331A60027BCAB9364A0C32126830
:100C40008A43344B0C331A604288C38842EA034318
:100C5000304A4032847A42F834300288838842EA4B
:100C600003432C4A4032847A02EBC4025360027B75
:100C7000012A19D1274A0C3212680A43254B0C333A
:100C80001A604288038842EA0343224A4032847A47
:100C900042F83430C288838842EA03431D4A403216
:100CA000847A02EBC4025360C27A3AB9194A121D1F
:100CB00012688A43174B1B1D1A6006E0154A121D65
:100CC00012680A43134B1B1D1A60028932B9114A7C
:100CD000143212688A430F4B14331A600289012AB6
:100CE00006D10C4A143212680A430A4B14331A60B4
:100CF000427B012A06D1074A1C3212680A43054B7F
:100D00001C331A60034A126822F00102014B1A6078
:100D100010BD0000006600401AB143690B434361F7
:100D200002E043698B434361704730B502460020BF
:100D30000023146824F002041460146844F00104D1
:100D4000146000E05B1C546804F001041CB94FF609
:100D5000FF74A342F6D1546804F001040CB90020DA
:100D60006CE08C79012C04D1146844F08004146088
:100D700003E0146824F080041460CC79012C04D1C1
:100D8000146844F04004146003E0146824F0400444
:100D900014600C7A012C04D1146844F0200414600F
:100DA00003E0146824F0200414604C7A012C04D170
:100DB000146844F01004146003E0146824F0100474
:100DC00014608C7A012C04D1146844F00804146077
:100DD00003E0146824F008041460CC7A012C04D1D8
:100DE000146844F00404146003E0146824F004045C
:100DF00014608C78A407CD7844EA05640D7944EA40
:100E000005444D7944EA05540D886D1E2C43D46188
:100E1000146824F001041460002300E05B1C546893
:100E200004F001041CB14FF6FF74A342F6D15468DC
:100E300004F001040CB1002000E0012030BD0000EE
:100E40002DE9F0418AB004460D4616461F46DDF8EE
:100E500040800121042002F04BFA0121480602F0F3
:100E600037FA4FF48050ADF8240003208DF82600A7
:100E700018208DF8270009A92D4800F0BBFB4FF47E
:100E80000060ADF8240048208DF8270009A9284803
:100E900000F0B0FB00208DF81E0001208DF81F002F
:100EA0008DF8200000208DF821008DF822008DF8AB
:100EB00023008DF81A808DF81B408DF81C608DF88A
:100EC0001D50ADF8187006A91A48FFF72EFF002034
:100ED0008DF812008DF8130001208DF81400002009
:100EE000ADF80800ADF80A00ADF80C00ADF80E0042
:100EF000ADF8100001208DF8150002A8FFF788FE5C
:100F0000012202210B48FFF707FF14208DF804008F
:100F100001208DF8050000208DF8060001208DF8D5
:100F2000070001A801F0A8FC00200AB0BDE8F0818C
:100F3000000801400064004010B500F5D87303EBD1
:100F400001131B6803F004031372137A53B900F5FD
:100F5000D87303EB01131B6840F2FF7404EA535388
:100F6000136009E000F5D87303EB01131B686FF001
:100F7000604404EAD303536000F5D87303EB011314
:100F80001B6803F00203537200F5D87303EB0113DF
:100F90005B6803F00F03937200F5D87303EB011342
:100FA0005B681B0AD37400F5D87303EB01139B68CD
:100FB000D37200F5D87303EB01139B681C0A1473FA
:100FC00000F5D87303EB01139B681C0C547300F5F8
:100FD000D87303EB01139B681B0E937300F5D87352
:100FE00003EB0113DB68D37300F5D87303EB011334
:100FF000DB681C0A147400F5D87303EB0113DB687B
:101000001C0C547400F5D87303EB0113DB681B0E42
:10101000937421B9C36843F02003C36003E00369FC
:1010200043F02003036110BD10B502460020936811
:1010300003F08063B3F1806F00D110E0936803F098
:101040000063B3F1006F01D1012008E0936803F061
:101050008053B3F1805F01D1022000E00420042816
:1010600074D002F5C07303EB00131B6803F0010496
:1010700002F5C07303EB00131C600B7A7BB94B7A4B
:101080000C8843EA445302F5C07404EB001424684E
:10109000234302F5C07404EB0014236010E00B7AC4
:1010A0004C6843EAC4034C7A234302F5C07404EB52
:1010B00000142468234302F5C07404EB0014236079
:1010C0008B7A03F00F038B7202F5C07303EB0013EE
:1010D0005B6823F00F0402F5C07303EB00135C6040
:1010E00002F5C07303EB00135B688C7A234302F5AF
:1010F000C07404EB001463608B7B1C064B7B44EADA
:1011000003440B7B44EA0323CC7A234302F5C074E7
:1011100004EB0014A3608B7C1C064B7C44EA034464
:101120000B7C44EA0323CC7B234302F5C07404EB1D
:101130000014E36002F5C07303EB00131B6843F077
:10114000010402F5C07303EB00131C6010BD000026
:1011500010B50246002321B1012907D002290FD181
:1011600009E090681D4C00EA04030BE090681C4CF9
:1011700000EA040306E090681A4C00EA040301E068
:10118000002300BF00BF184C181BA34216D007DC79
:1011900083B16FF08060184470B1022818D111E05B
:1011A000B0F5007F10D0114C204448B1B0F5003F9D
:1011B0000ED10BE002230DE000230BE0002309E039
:1011C000002307E0012305E0012303E0012301E000
:1011D000002300BF00BFD8B210BD00000300000410
:1011E0000003000800000310000100080001FFF7E1
:1011F00010B500241548006820F0704013490860BD
:101200000846006840F00040086004E0601CC4B27A
:10121000012003F0E5FC0E48006808B1642CF5DB02
:10122000642C01DB012010BD002404E0601CC4B26A
:10123000012003F0D5FC0648006808B9642CF5DBF2
:10124000642C01DB0120EEE70020ECE7040C0140F8
:101250003C81214208B50121082002F049F84FF4F1
:101260000040ADF8000010208DF8030003208DF839
:1012700002006946064800F0BDF94FF400410448F9
:1012800000F08EFA00F068F8FFF7B2FF08BD00002A
:10129000000C014010B5002404E0601CC4B2012021
:1012A00003F09EFC0D48006808B1642CF5DB0024B7
:1012B00004E0601CC4B2012003F092FC07480068FF
:1012C00008B9642CF5DB282003F08AFC0348006889
:1012D00008B1012010BD0020FCE700003C81214244
:1012E00070B50024002506E06006040EFFF7D2FF6B
:1012F0000443681CC5B2082DF6DB204670BD7CB5E2
:1013000005460E4600F028F8FFF772FFF8B90024F2
:1013100005E0FFF7E5FF0DF80400601CC4B2052CE2
:10132000F7DB9DF800009DF8011008449DF80210BD
:1013300008449DF8031008449DF80410884208D121
:101340009DF8000030709DF80200287001E0012037
:101350007CBD0020FCE7000010B50C48006820F0C0
:1013600070400A4908600846006840F04050086034
:10137000002007490860142003F012FC01200549F1
:10138000C1F8BC011E2003F02BFC10BD040C014071
:10139000BC8121420080214210B54FF4005000F082
:1013A000D5F850B14FF4005000F00CF8012003497B
:1013B00008700021024800F013F810BD4D00002015
:1013C0004400024000F0805111B10349086001E07F
:1013D00002494860704700000404024000000240D7
:1013E00021B1026842F00102026004E002684FF697
:1013F000FE731A400260704701684FF6FE7211409A
:1014000001600021016041608160C1604B498842F8
:1014100008D14A490839496841F00F01474A083A5A
:1014200051608AE045491431884208D1434908395E
:10143000496841F0F001414A083A51607DE03F4976
:101440002831884208D13D490839496841F4706122
:101450003A4A083A516070E038493C31884208D134
:1014600036490839496841F47041344A083A5160B4
:1014700063E032495031884208D13049083949681F
:1014800041F470212D4A083A516056E02B496431ED
:10149000884208D129490839496841F47001274A2E
:1014A000083A516049E025497831884208D12349FA
:1014B0000839496841F07061204A083A51603CE0BF
:1014C0001F49884206D1011F096841F00F01021F20
:1014D000116032E01A491431884208D11849091FB5
:1014E000096841F0F001164A121F116025E0144905
:1014F0002831884208D11249091F096841F47061F6
:101500000F4A121F116018E00D493C31884208D182
:101510000B49091F096841F47041094A121F116003
:101520000BE007495031884207D10549091F096876
:1015300041F47021024A121F1160704708000240F6
:10154000080402400146486880B270470146002006
:10155000002201F0805313B1054B1A6801E0054BDE
:101560001A6802EA01030BB1012000E00020704775
:1015700000040240000002401AB103680B430360FC
:1015800002E003688B430360704710B500220268D5
:1015900047F6F0739A430C6A8B6823430C69234324
:1015A0004C6923438C692343CC6923434C6A23430E
:1015B0008C6A23431A430260CB6843600B688360E4
:1015C0004B68C36010BD41607047704708B501218A
:1015D000082001F08DFE4FF4C040ADF80000482017
:1015E0008DF803006946024800F004F808BD0000C9
:1015F000000C01402DE9F0410246002500260020A4
:1016000000230024002791F803C00CF00F0591F887
:1016100003C00CF0100CBCF1000F03D091F802C015
:101620004CEA050591F800C0BCF1000F31D01468F8
:1016300000202BE04FF0010C0CFA00F3B1F800C0D1
:101640000CEA03069E4220D183004FF00F0C0CFAE7
:1016500003F7BC4305FA03FC4CEA040491F803C009
:10166000BCF1280F06D14FF0010C0CFA00FCC2F8B7
:1016700014C00AE091F803C0BCF1480F05D14FF047
:10168000010C0CFA00FCC2F810C0401C0828D1D391
:101690001460B1F800C0BCF1FF0F34DD54680020C5
:1016A0002EE000F1080C4FF0010808FA0CF3B1F835
:1016B00000C00CEA03069E4221D183004FF00F0CBC
:1016C0000CFA03F7BC4305FA03FC4CEA040491F856
:1016D00003C0BCF1280F05D100F1080C08FA0CF882
:1016E000C2F8148091F803C0BCF1480F07D100F193
:1016F000080C4FF0010808FA0CF8C2F81080401CE2
:101700000828CED35460BDE8F0810000F0B50A4649
:10171000002300240021002500F00046B6F1004F10
:1017200002D11D4EF16901E01B4E7168C0F3034503
:1017300083B200F44016B6F5401F08D121F0706165
:10174000154E766826F07066134F7E6012E000F446
:101750008016B6F5801F06D1032606FA05F4A143CC
:1017600041F0706106E0460D360103FA06F6B1431A
:1017700041F0706122B1460D360103FA06F631439D
:1017800000F00046B6F1004F02D1034EF16101E0D6
:10179000014E7160F0BD00000000014041617047E2
:1017A0000161704710B50446E1B2072300220F48DB
:1017B000FFF732F8E1B2072301220C48FFF72CF8BB
:1017C000E1B2072302220948FFF726F80121074862
:1017D000FFF783F800BF02210448FEF7E1FF00286D
:1017E000F9D00248FEF7D8FF10BD000000240140E8
:1017F0002DE9F04707460C460025002608E038464C
:10180000FFF7D0FF0544052005F00CFA701CC6B2A6
:10181000A642F4DB95FBF4F00A490880088807F03B
:10182000D5F982464FF08B4107F086F8814606498C
:1018300007F014FA804607F091F904490870BDE8F2
:10184000F08700002E0100200000C8423601002071
:101850002DE9FF5F83460C464FF00009CA460AE0B7
:101860005846FFF79FFF8144052005F0DBF90AF198
:10187000010000F0FF0AA245F2DB99FBF4F01E38EC
:101880001A4988800846818819A0FEF731FD17485B
:10189000808840F6D211884203DD64201A4908701E
:1018A00022E01248808840F6A701884203DA00202F
:1018B0001549087018E00D498988A1F6A70007F0BE
:1018C0006DF9019006F09EFF0022104BCDE9020158
:1018D00006F06CFA074600220D4B06F083FC054625
:1018E00006F0ECFB08490870BDE8FF9F2E010020C0
:1018F00041445F41667465725F46696C7465723D10
:1019000025640D0A000000003401002000B0724080
:10191000000059402DE9F04707460C4600250026F7
:1019200008E03846FFF73EFF0544052005F07AF948
:10193000701CC6B2A642F4DB95FBF4F0DC3015490E
:1019400048800846408840F6F321884203DD642041
:10195000114908701CE00F48408840F6A6118842E3
:1019600003DA00200C49087012E00A494988A1F600
:10197000A61007F013F98246084906F0DDFF8146FC
:10198000074907F06BF9804607F0E8F8024908704C
:10199000BDE8F0872E010020350100200080A6431D
:1019A0000000C84200B53048006840690068A0F2F5
:1019B0000120082855D2DFE800F0040506070809D1
:1019C0000A0B00BF00BF00BF00BF00BF00BF00BFC9
:1019D0002548006840690078401E24490870084680
:1019E000007800EB400101EBC000214901EB8000D1
:1019F000816A1E48007800EB400202EBC0001C4ADE
:101A000002EB8000806A401C184A127802EB420305
:101A100003EBC202164B03EB8202906232290DD80F
:101A20001249097801EB410202EBC1011A4602EBAF
:101A300081000D49096803F041F90CE00B49097870
:101A400001EB410202EBC101094A02EB81000649A8
:101A5000096803F0F7F804480168064803F0F2F853
:101A600000BF00BF00BD0000E0000020E400002037
:101A7000302B0020902C002000BFFEE72DE9F84F0E
:101A800004468A4617465146384607F0EFF960602B
:101A90000021606807F0AEF901D2606802E060687A
:101AA00080F00040834606F0ADFE0546254A264BF1
:101AB00006F05CFB01D800206060D4E9010107F06A
:101AC000D5F90546216907F0C9F880466168606963
:101AD00007F0C4F800904FF08040A16807F0BEF80E
:101AE0008346616807F0B7F90646E16806F0B6FE7E
:101AF0000546A16907F0B2F881464146E06906F063
:101B0000ADFE0646009906F0A9FE0546494606F0D8
:101B1000A5FEE0616068A060A068E0600B49E06934
:101B200007F068F902D20948E06106E00849E06977
:101B300007F060F801D20648E061E06920602068A3
:101B4000BDE8F88F9A9999999999C93F0000204169
:101B5000000020C110B592B004460121082001F018
:101B6000C7FB0121880401F0B3FB0121084601F005
:101B70009FFB4FF48060ADF8440003208DF84600D1
:101B800018208DF8470011A93148FFF733FD4FF4B5
:101B90000060ADF8440004208DF8470011A92C48DE
:101BA000FFF728FD27208DF8300003208DF8310045
:101BB00001208DF832008DF833000CA800F05CFE97
:101BC0000D940020ADF83800ADF83A00ADF83C00B7
:101BD000ADF840000C20ADF83E000DA91D4802F004
:101BE000BDFA1D48FFF708FC1A48001D01901B486C
:101BF000029000200390282004900020059080206F
:101C0000069000200790089009904FF400500A9029
:101C100000200B9001A91048FFF7B7FC0122C0215A
:101C20000C4802F042FA012202210B48FFF7A4FC03
:101C300001210948FFF7D4FB012240F22441054865
:101C400002F066FA0121034802F023FA12B010BD37
:101C5000000C01400048004030000240FC2C0020F5
:101C600070B53A49C979090209B2384A927941EA0C
:101C7000020006F093FF05464FF08E4106F05CFE31
:101C800004464FF0834106F0E9FF314908602F49CF
:101C9000897B090209B22D4A527B41EA020006F013
:101CA0007DFF05464FF08E4106F046FE0446294969
:101CB00006F0D4FF284908602449897C090209B24A
:101CC000224A527C41EA020006F068FF05464FF0C6
:101CD0008E4106F031FE04461E4906F0BFFF1F4943
:101CE00008601A49097E194A527E41EA022006F02C
:101CF00055FF05464FF08E4106F01EFE044618497A
:101D000006F0ACFF174908601049897E0F4AD27E61
:101D100041EA022006F042FF05464FF08E4106F0F0
:101D20000BFE04460E4906F099FF0F4908600C4966
:101D30000D48006807F05EF806D20C490A480068B2
:101D400007F094F80849086070BD0000242D0020B9
:101D5000040100200000FA440801002010010020C6
:101D60000000344314010020180100200000B44397
:101D70003A4800787C2807DD38480078852803DA5F
:101D800000203749088004E034480078803834491E
:101D90000880324840787C2807DD30484078852824
:101DA00003DA00202F49088004E02C48407880386E
:101DB0002C490880294880787B2807DD27488078CF
:101DC000842803DA00202849088005E02348807829
:101DD000C0F17F00244908802048C0787B2807DDB7
:101DE0001E48C078842803DA00202049088004E0D7
:101DF0001A48C0787F381D490880184800791C4966
:101E00000870164840791B4908701448807900F022
:101E100001001949087011488079C0F340004870EA
:101E20000E488079C0F3800088700C488079C0F338
:101E3000C000C87009488079C0F3001008710748D5
:101E40008079C0F34010487104488079C0F3801055
:101E5000887102488079C009C8717047D82C002069
:101E60003A0100203C0100203E01002040010020FA
:101E700042010020430100204401002010B586B03B
:101E800004460121042001F033FA0121480401F045
:101E90001FFA0121084601F00BFA0420ADF81400E6
:101EA00003208DF8160018208DF8170005A91C488E
:101EB000FFF7A0FB0820ADF8140004208DF81700F0
:101EC00005A91748FFF796FB26208DF80000032090
:101ED0008DF8010002208DF8020001208DF803002A
:101EE000684600F0C9FC01940020ADF80800ADF888
:101EF0000A00ADF80C00ADF810000C20ADF80E0093
:101F000001A9084802F02AF9012240F225510548AA
:101F100002F0FEF80121034802F0BBF806B010BD44
:101F2000000801400044004070B5054611480168B2
:101F30001148006806F09AFF0F490860002407E086
:101F40000C49601C51F8200041F82400601CC4B208
:101F5000032CF5DB0748C560C1680748006806F038
:101F60007DFC054908604FF081410348006806F098
:101F7000E3FC70BDC02D00206401002042E0224837
:101F8000007888B32148007828BB2148016821489F
:101F9000006806F063FC04461F48214602681F489B
:101FA000FFF76CFD1E490860084601681D4800687F
:101FB00006F054FC04462146002000F037F818488B
:101FC00001681848006806F051FF044621460020C9
:101FD00000F0A6F913E01449002000F027F8124998
:101FE000002000F09DF90AE0FFE700200B49C861DE
:101FF0000D4900F01BF80C49002000F091F90A206F
:1020000004F010FEBBE70000840100205501002011
:10201000F4000020F000002018010020682F0020AC
:10202000E8000020EC000020000090402DE9F04F77
:1020300097B0064689464FF0000AD34600BF0020FD
:10204000159014901390129086F000469C493046EB
:1020500006F0D0FE01D29A4E05E09A49304606F0CD
:10206000C9FD00D2974E9849484606F0C3FE02D2F9
:10207000DFF854920AE0484606F0C4FB0746002207
:10208000924B06F073F801D2DFF84492484606F00E
:10209000B9FB074600224FF0804303F06DF8CDE90D
:1020A0000C01304606F0AEFB074600224FF080439D
:1020B00003F062F8CDE90A01DDE90C2305F0BAFD71
:1020C000CDE90E0104F0FCFACDE9100105F080FD28
:1020D0008246504606F096FB074600227B4B06F0F0
:1020E00045F802D2DFF8E8A10AE0504606F08AFB84
:1020F00007460022774B06F073F901D2DFF8D8A12A
:102100005146304606F018FC0B9006F07BFBCDE9FB
:102110000C0102F0DFFB07460022704B06F062F86C
:102120004FF0C0426E4BCDE90E0105F03FFECDE908
:10213000100105F04DFD834651466A4806F08EFDBC
:10214000074606F05FFB00224FF08043CDE90A010D
:102150001046654903F010F800224FF08043CDE9A6
:1021600006011046614903F007F8CDE90201504627
:1021700006F048FB074600224FF0804302F0FCFFC8
:10218000CDE90001DDE9022305F054FDCDE90401AC
:10219000DDE9062306F04CFACDE90801DDE90A2362
:1021A00005F004FECDE90C0102F022FA00224B4BAF
:1021B000CDE90E0106F016F84FF0C042484BCDE9CC
:1021C000100105F0F3FD04460D46584606F01AFBD3
:1021D00022462B46CDE9100106F038F9074605F0F6
:1021E000F7FC1590584606F00DFB074622462B4695
:1021F00005F020FDCDE9100105F0EAFC14903C4902
:10220000159806F033FE0D9006F0FCFA0746394AA1
:10221000394B05F0E7FF81F000410022374BCDE953
:102220000E0105F007FDCDE9100105F0D1FC12907B
:102230002F49149806F01AFE0D9006F0E3FA304A82
:10224000304BCDE90E0105F0CDFF00222E4BCDE93C
:10225000100105F0EFFC074605F0BAFC13902B497E
:10226000129806F0C7FC02D22848129006E02849CE
:10227000129806F0BFFD01D2254812902549139807
:1022800006F0B8FC02D22348139006E022491398C6
:1022900006F0B0FD01D220481390129806F05EFCC3
:1022A00087B239461D4801F06EFC139806F056FCC3
:1022B00087B23946194801F068FC17B0BDE8F08FC5
:1022C00000002041000020C10000B8410000124081
:1022D00000009040000035400000A84100806640AA
:1022E000FB2109400000B0410000284000002640CA
:1022F0000000B44246B6F3FDD4382640009888402A
:1023000054E3A59BC4A01D4000C8994000C03044C0
:1023100000C0C64400008C440080D4440004004047
:102320002DE9F34F95B00E464FF0000900201490B0
:1023300000BF13901290119010909A49159806F0D2
:1023400059FD02D29748159006E09749159806F076
:1023500051FC01D2944815909449304606F04AFD4C
:1023600001D2924E09E0304606F04CFA07460022B0
:102370008F4B05F0FBFE00D28E4E304606F042FA3F
:10238000074600224FF0804302F0F6FECDE90C0133
:10239000159806F037FA074600224FF0804302F006
:1023A000EBFECDE90A01DDE90C2305F043FCCDE9A4
:1023B0000E0104F085F9824605F00AFC8146484684
:1023C00006F020FA07460022794B05F0CFFE02D234
:1023D000DFF8E0910AE0484606F014FA07460022CA
:1023E000754B05F0FDFF01D2DFF8D09149461598F5
:1023F00006F0A2FA0B9006F005FACDE90C0102F006
:1024000069FA824600226E4B05F0ECFE4FF0C042A6
:102410006C4BCDE90E0105F0C9FC074605F0D8FB71
:1024200014904946684806F019FC074606F0EAF998
:1024300000224FF08043CDE908011046634902F0C5
:102440009BFE00224FF08043CDE904011046604915
:1024500002F092FE07468846484606F0D3F98246C7
:1024600000224FF0804302F087FE3A464346CDE912
:10247000000105F0DFFBCDE90201DDE9042306F0F0
:10248000D7F8CDE90601DDE9082305F08FFCCDE999
:102490000A0102F0ADF80022494BCDE90C0105F02C
:1024A000A1FE4FF0C042474BCDE90E0105F07EFC86
:1024B00004460D46149806F0A5F9074622462B4619
:1024C00005F0C4FF824605F083FB1390149806F0D4
:1024D00099F9074622462B4605F0ACFB824605F0EB
:1024E00077FB12903B49129806F0C0FC0D9006F065
:1024F00089F98246384A394B05F074FE0022384B80
:10250000CDE90E0105F096FB074605F061FB119041
:102510003049139806F0AAFC0D9006F073F90746AF
:102520002D4A2E4B05F05EFE81F0004100222D4B1E
:10253000CDE90E0105F07EFB824605F049FB1090C7
:102540002949119806F056FB02D22748119006E05F
:102550002649119806F04EFC01D2244811902449D6
:10256000109806F047FB02D22148109006E021495E
:10257000109806F03FFC01D21E481090119806F00A
:10258000EDFA87B239461C4801F0F9FA109806F0C6
:10259000E5FA87B23946184801F0F3FA17B0BDE8FA
:1025A000F08F000000002041000020C10000B84171
:1025B0000000124000009040000035400000A8419B
:1025C00000806640FB2109400000B0410000284027
:1025D000000026400000B44254E3A59BC4A01D4067
:1025E000003898400018954000807C440000C844A2
:1025F0000080A2440000EB44000400402DE9FE4F9F
:102600008048008864280BDD00207F4908707D48E1
:10261000008842F21071884202DDC82079490880A2
:102620007948007800287DD0FFF7A2FB77484078F2
:1026300001282DD17648007805F084FD0022754BE5
:10264000CDE9000105F0B2FB82460022724B05F095
:10265000FDFE06460F467148B0F9000005F05BFD2F
:10266000804632463B4605F0BDFD044605F0F6FCCB
:10267000029001F02DFB6A4908606A49B1F9001027
:1026800001EB4101880001F073FB674908602CE011
:102690005F48007805F056FD00225E4BCDE9000151
:1026A00005F084FB804600225B4B05F0CFFE04461C
:1026B0000D465A48B0F9000005F02DFD06462246A9
:1026C0002B4605F08FFD824605F0C8FC029001F014
:1026D000FFFA534908605549B1F9001001EB410177
:1026E000880001F045FB504908604948007806F031
:1026F0006DFA834606F086F8804600224C4B05F0C2
:1027000055FB064600224B4B05F094FA044605F0B3
:102710005FFA824600F076FE474908604748007835
:1027200040B100E060E0002044490870444800786F
:102730004449087042490978424A1278881A05F0DB
:10274000EAFC07460022404B05F030FB054605F049
:102750003FFA0446FFF7E8FB3C490860084600687A
:1027600006F050F804460022394B05F039FE03D23A
:102770003848364908600CE03448006806F042F8F2
:1027800004460022344B05F0F1FC02D233482F49B5
:1027900008603348007828B91C480079012801D125
:1027A0002F49087019484079012802D100202D498D
:1027B000087016488079012801D120490870134813
:1027C000C079012801D12749087010488078012874
:1027D00006D10F48007818B90120234908700EE08F
:1027E0000020214908700AE000200E4908801F4996
:1027F00008800B4908600C49086014490860BDE86E
:10280000FE8F0000700100204E01002044010020D6
:102810004301002000001E4000C052403C01002047
:10282000740100203E010020780100203A010020C0
:102830000000344000001840EC0000204D01002052
:10284000420100204C01002000002840F40000203C
:102850000000244000002041000024C0000020C1EE
:102860005401002086010020550100204001002075
:1028700000BFFEE77047000070B5002100230F2263
:10288000C47804B3154C246804F4E064C4F5E0642F
:10289000210AC1F10403CA40447804FA03F18478A0
:1028A0001440214309010E4C0678A155047804F028
:1028B0001F050124AC4005786D11AD0005F1E02540
:1028C000C5F8004109E0047804F01F050124AC407C
:1028D000044D0678761145F8264070BD0CED00E0F9
:1028E00000E400E080E100E002490143024A116097
:1028F000704700000000FA050CED00E070B5002400
:1029000018E004F1B000002100F07FFA0021084631
:1029100000F07BFA0021102000F077FA002505E096
:102920000121002000F071FA681CC5B2802DF7DB90
:10293000601CC4B2082CE4DB70BD00002DE9FF5F11
:1029400086B014461D464FF0010A00200390049003
:1029500005904FF00109002600BF83460022134670
:102960002046294605F002FC09D285F00040CDE959
:1029700000402046019905F071FB064604E0204620
:10298000294605F06BFB0646304605F0C4FB22469F
:102990002B46CDE9000105F059FD07468846002287
:1029A000554B3846414605F01DFCCDE9000105F0C8
:1029B00085FB834607E009EB89004FEA40090AF1ED
:1029C000010000F0FF0A0A2096FBF0F090FBF9F0FE
:1029D0000028F0D142F2107096FBF0F00A2190FB33
:1029E000F1F201FB1200C0B28DF80C004FF47A70C6
:1029F00096FBF0F090FBF1F201FB1200C0B28DF8F3
:102A00000D00642096FBF0F090FBF1F201FB120048
:102A1000C0B28DF80E000A2096FBF0F090FBF1F2A8
:102A200001FB1200C0B28DF80F000A2096FBF0F1F6
:102A300000FB1160C0B28DF810002E208DF811003F
:102A40004FF47A70BBFBF0F00A21B0FBF1F201FB0E
:102A500012008DF812006420BBFBF0F0B0FBF1F225
:102A600001FB12008DF813000A20BBFBF0F0B0FB55
:102A7000F1F201FB12008DF814000A20BBFBF0F10B
:102A800000FB11B08DF8150000211498801D03AAD9
:102A90001154894608E003A810F80900303003A952
:102AA00001F8090009F10109B9F10A0FF3DB00226D
:102AB00013462046294605F059FB08D20AF10100C9
:102AC00000F0FF0A2D20CAF1050103AA50542E2060
:102AD0008DF8110000211498801D03AA1154CAF129
:102AE000050003A942180C23DDE9061000F072F975
:102AF0000AB0BDE8F09F00000088C34010B5402137
:102B00000748FEF74DFE80210548FEF749FE80216B
:102B10000348FEF743FE40210148FEF73FFE10BD8B
:102B2000000C014010B540210548FEF739FE802118
:102B30000348FEF733FE80210148FEF731FE10BD49
:102B4000000C014010B540210348FEF729FE40214A
:102B50000148FEF723FE10BD000C014008B501211D
:102B6000092000F0C5FB01214348FEF7CFFDC0203E
:102B7000ADF8000010208DF8030003208DF802004E
:102B800069463E48FEF736FDC0213C48FEF708FE88
:102B90004FF4487002F004F80021AE2000F035F93F
:102BA0000021084600F031F90021102000F02DF935
:102BB0000021402000F029F90021B02000F025F983
:102BC0000021812000F021F90021FF2000F01DF9F3
:102BD0000021A12000F019F90021A62000F015F92C
:102BE0000021A82000F011F900213F2000F00DF98C
:102BF0000021C82000F009F90021D32000F005F9D8
:102C00000021084600F001F90021D52000F0FDF870
:102C10000021802000F0F9F80021D82000F0F5F81C
:102C20000021052000F0F1F80021D92000F0EDF896
:102C30000021F12000F0E9F80021DA2000F0E5F8A9
:102C40000021122000F0E1F80021DB2000F0DDF887
:102C50000021302000F0D9F800218D2000F0D5F8B7
:102C60000021142000F0D1F80021AF2000F0CDF8B1
:102C7000FFF744FE08BD000000023000000C0140D8
:102C800070B504460D4605F1B000002100F0BDF816
:102C9000102141EA1410002100F0B7F804F00F00F1
:102CA000002100F0B2F870BD2DE9F04707460E464E
:102CB0009046994600250024A8F12000C5B27F2F38
:102CC00002DD0027B01CC6B2B9F1100F24D1314685
:102CD0003846FFF7D5FF002408E004EB0511194A38
:102CE000505C012100F091F8601CC4B2082CF4DBA8
:102CF000701CC1B23846FFF7C3FF002409E004EBA3
:102D0000051108310F4A505C012100F07EF8601C6B
:102D1000C4B2082CF3DB12E031463846FFF7B0FFAF
:102D200000240AE005EB4501074A02EB4101085D7A
:102D3000012100F06AF8601CC4B2062CF2DBBDE889
:102D4000F08700006E920008469000082DE9FF5FB2
:102D5000074691461E460E9D4FF0000A002435E0BE
:102D6000301B401EC1B20A2001F0CEFFB9FBF0F0CB
:102D70000A21B0FBF1F201FB1208BAF1000F14D1E5
:102D8000701EA04211DDB8F1000F0CD1AB4605EB6F
:102D9000DB71491001FB0471C8B22B462022019956
:102DA000FFF782FF10E04FF0010AAB4605EBDB7145
:102DB000491001FB0471C8B208F13001CAB22B46B8
:102DC0000199FFF771FF00BF601CC4B2B442C7DBBA
:102DD000BDE8FF9F2DE9F04105460E4614461F460B
:102DE0000EE022783B4631462846FFF75DFF05F1AD
:102DF0000800C5B2782D02DD0025B01CC6B2641CE7
:102E000020780028EDD1BDE8F08170B504460D466C
:102E10001DB1E0B200F046F802E0E0B200F02CF89C
:102E200070BD00002DE9F04105462C4640211148B7
:102E3000FEF7B4FC002619E0274607F08007802F34
:102E400004D180210B48FEF7ABFC03E08021094848
:102E5000FEF7A4FC6006040E40210648FEF7A0FC25
:102E600040210448FEF79AFC701CC6B2082EE3DB32
:102E7000BDE8F081000C014010B50446FFF73EFEAE
:102E80007820FFF7CFFFFFF75DFE0020FFF7CAFFB6
:102E9000FFF758FE2046FFF7C5FFFFF753FEFFF789
:102EA00041FE10BD10B50446FFF728FE7820FFF75D
:102EB000B9FFFFF747FE4020FFF7B4FFFFF742FEE0
:102EC0002046FFF7AFFFFFF73DFEFFF72BFE10BDDB
:102ED00008B59CE00C234EA201212D20FFF77AFFBC
:102EE0000C234DA201210846FFF774FF4C480068EF
:102EF00005F088FC0446012022460B462D21009057
:102F0000FFF71CFD0C2347A202213220FFF762FFCE
:102F10000C2347A202210120FFF75CFF464800680E
:102F200005F070FC0446022022460B463221009038
:102F3000FFF704FD0C2341A203211420FFF74AFFF1
:102F40000C233FA203210120FFF744FF0C200223A2
:102F500000903C48027803211420FFF7F7FE0C2371
:102F600039A204211420FFF735FF0C2338A20421D5
:102F70000120FFF72FFF0C20022300903548027834
:102F800004211420FFF7E2FE0C232FA20421552078
:102F9000FFF720FF0C2330A204213C20FFF71AFF8B
:102FA0000C20022300902B48027804215520FFF7C3
:102FB000CDFE0C2324A205211E20FFF70BFF0C23BE
:102FC00026A205210120FFF705FF0C200223009017
:102FD0002448027805211E20FFF7B8FE0C231AA210
:102FE00006211E20FFF7F6FE0C231FA2062101205A
:102FF000FFF7F0FE0C20022300901D480278062106
:103000001E20FFF7A3FE4FF4967003F00BFE61E75E
:103010002020202020000000526F6C6C3A0000003D
:10302000140100202020202020202020200000004B
:1030300050697463683A00001801002020202000C5
:10304000543A0000380100202020202020202000B9
:10305000483A00003901002041513A005631323AD5
:1030600000000000340100205632343A0000000015
:103070003501002055E02B48007801280BD10020B5
:103080002849087040F2BE502749088040F2DC50C1
:103090002649088038E02648407858BB22480088F6
:1030A00024490988494208441F4908801F4800886C
:1030B00021490988494208441C4908801A48008867
:1030C00040F6C411884203DD08461749088008E02D
:1030D00015480088B0F5FA7F03DA4FF4FA70124908
:1030E00008801248008840F63401884203DD084613
:1030F0000E49088008E00D480088B0F5487F03DAE3
:103100004FF4487009490880084801880B4800F0CE
:103110003AFD05480188094800F037FD642003F0B6
:1031200081FDA8E7540100202A0100202C01002085
:10313000440100203E010020400100200008004022
:103140002DE9FE4F04460D4616461F46DDE90D9A51
:10315000DDF83080074860660748A0668DE8000704
:103160003B46324629462046D4F864C0E047BDE8D5
:10317000FE8F00005D5100087151000830B589B024
:1031800005460C460121082000F0B2F80121042078
:1031900000F09EF84FF44070ADF8200018208DF834
:1031A000230003208DF8220008A91C48FEF722FA0C
:1031B000A8B2ADF81800A0B2ADF814000020ADF828
:1031C0001600ADF81A0005A9154800F0E1FC6020D2
:1031D000ADF804000020ADF80C000120ADF80600A9
:1031E00040F2DC50ADF80A0001A90D4800F022FCC5
:1031F00001A90B4800F078FC0021094800F06AFCA6
:103200000021074800F0AEFC0121054800F024FB36
:103210000121034800F032FB09B030BD000C014031
:10322000000800401948007870BB1948B0F9000048
:10323000002803DD1648B0F9000003E01448B0F997
:10324000000040421249B1F92C10002903DD104959
:10325000B1F92C1003E00E49B1F92C104942084491
:1032600043F2D401884205DD0A480088401C094920
:10327000088002E00020074908800648008864288A
:1032800002DD01200149087070470000860100201E
:10329000302B00209801002001460020034A50688E
:1032A00020F4404008435060704700000010024086
:1032B00029B1064A52690243044B5A6104E0034AA9
:1032C00052698243014B5A6170470000001002406E
:1032D00029B1064AD2690243044BDA6104E0034A89
:1032E000D2698243014BDA6170470000001002404E
:1032F00029B1064A92690243044B9A6104E0034AE9
:1033000092698243014B9A617047000000100240AD
:1033100029B1064AD2680243044BDA6004E0034A4A
:10332000D2688243014BDA6070470000001002400F
:1033300030B500210022002400232D4D6D6805F0DA
:103340000C0121B1042905D0082923D105E0294D1C
:10335000056022E0274D05601FE0254D6D6805F4EE
:103360007012234D6D6805F48034022505EB9242FE
:103370001CB9214D554305600BE01D4D6D6805F4EA
:1033800000351DB11C4D5543056002E0194D5543F4
:10339000056002E0174D056000BF00BF144D6D6869
:1033A00005F0F0010909154D6B5C0568DD404560CD
:1033B0000F4D6D6805F4E061090A104D6B5C4568BE
:1033C000DD4085600A4D6D6805F46051C90A0B4DFA
:1033D0006B5C4568DD40C560054D6D6805F4404196
:1033E000890B074D6B5CC568B5FBF3F5056130BD16
:1033F0000010024000127A0000093D005700002032
:103400006700002070B50546114801681148006842
:1034100005F02CFD0F490860002407E00C49601CF2
:1034200051F8200041F82400601CC4B2062CF5DBE2
:103430000748856181690748006805F00FFA05496A
:10344000086005490348006805F076FA70BD000081
:10345000A42D0020600100200000E04018E00D488D
:10346000006810B1FFF7CAF801E0FDF747FA094814
:10347000001D006848B9052003F0D4FB0548001D75
:10348000006810B9002004490870502003F0CAFBFE
:10349000E5E70000348121428601002010B500F0EC
:1034A00001F810BD0CB50020019000903348006871
:1034B00040F480303149086000BF3048006800F4B3
:1034C000003000900198401C0190009818B90198B4
:1034D000B0F5A06FF1D12948006800F4003010B1B8
:1034E0000120009001E0002000900098012843D1C5
:1034F0002348006840F01000214908600846006831
:1035000020F0030008600846006840F002000860F0
:103510001A484068194948600846406848600846AB
:10352000406840F4806048600846406820F47C10A1
:1035300048600846406840F4E81048600846006863
:1035400040F08070086000BF0C48006800F0007018
:103550000028F9D00948406820F003000749486076
:103560000846406840F00200486000BF03484068D9
:1035700000F00C000828F9D10CBD0000001002403A
:10358000002002402DE9FC5F1048006805F03AF980
:10359000804600220E4B05F04BF806460D4A0E4BB6
:1035A00004F020FE04460D460C48006805F02AF998
:1035B000824622462B4605F03BF8CDE9000104F097
:1035C00007FB07490860BDE8FC9F0000EC000020F5
:1035D000000018407B14AE47E17AB43F8001002020
:1035E0007C01002010B511491148006805F03EFC2F
:1035F000044610480168204605F0FCFA12D20B4937
:103600000B48006805F02AF904460A48016820467C
:1036100005F0F0FB06D20848007818B901200749E8
:10362000087002E000200549087010BD0000B84194
:103630007C0100201401002086010020840100206C
:10364000042808D14FF0E021096941F004014FF04E
:10365000E022116107E04FF0E021096921F0040147
:103660004FF0E0221161704710B504F057F80128BF
:1036700001D003F019FD10BD10B51348006840F0EB
:1036800001001149086008464068104908400E4989
:103690004860084600680E4908400B490860084623
:1036A000006820F4802008600846406820F4FE008E
:1036B00048604FF41F008860FFF7F0FE4FF0006095
:1036C0000449086010BD0000001002400000FFF82F
:1036D000FFFFF6FE08ED00E07FB505460C46012130
:1036E000C802FFF705FEADF80850ADF80440002011
:1036F000ADF80A00ADF806008DF80C0001A90F48DE
:1037000000F046FA01210D4800F0B2F801224121F3
:103710000A4800F0D0F819208DF8000000208DF83C
:1037200001008DF8020001208DF803006846FFF7C4
:10373000A3F80121014800F0A1F87FBD002C014051
:1037400010B50121054800F0A5F8012801D101F0CC
:1037500021FC0121014800F08EF810BD002C014031
:1037600030B589B005460C4601210420FFF7C0FDA5
:1037700001210820FFF7BCFD01210220FFF7A8FD71
:10378000C020ADF8200018208DF8230003208DF80C
:10379000220008A92D48FDF72DFF0320ADF82000D9
:1037A00008A92B48FDF726FFA8B2ADF81800A0B273
:1037B000ADF814000020ADF81600ADF81A0005A908
:1037C000244800F0E5F96020ADF804000020ADF8D1
:1037D0000C000120ADF8060040F20E60ADF80A00C2
:1037E00001A91C4800F070F840F24650ADF80A00FC
:1037F00001A9184800F0BEF840F21330ADF80A00F5
:1038000001A9144800F016F940F27260ADF80A0000
:1038100001A9104800F068F900210E4800F0A0F856
:1038200000210C4800F0F8F800210A4800F052F995
:103830000021084800F096F90121064800F00CF834
:103840000121044800F01AF809B030BD0008014019
:10385000000C01400004004021B1028842F08002C7
:10386000028004E002884FF67F731A40028070479E
:10387000CA4302827047CA430282704721B102885C
:1038800042F00102028004E002884FF6FE731A4003
:103890000280704730B50246002000230024158ABC
:1038A00005EA0103958905EA010413B10CB1012071
:1038B00000E0002030BD1AB183890B43838102E010
:1038C00083898B438381704770B5002400220023D5
:1038D000058C4FF6FE7635400584028C8388048B78
:1038E0004FF68F752C40B51E2C400D882C43751E4D
:1038F0002A400D892A434D882A43144DA8420BD0F3
:10390000134DA84208D0134DA84205D0124DA8422D
:1039100002D0124DA84213D14FF6F7752A404D89B7
:103920002A434FF6FB752A408D882A434FF6FF65E0
:103930002B404FF6FF552B408D892B43CD892B43D0
:1039400083800483CD888586028470BD002C01406D
:103950000034014000400140004401400048014063
:103960000A460021018B4FF6F7731940114301837A
:103970007047000070B5002400220023058C4FF62C
:10398000EF7635400584028C8388048B48F6FF75FA
:103990002C404FF6FF452C400D884FF6FF7606EA87
:1039A00005252C434FF6DF752A400D8906EA0515DB
:1039B0002A434D8806EA05152A43154DA84202D030
:1039C000144DA8421DD14FF67F752A404D894FF600
:1039D000FF7606EA05152A434FF6BF752A408D8803
:1039E00006EA05152A434FF6FF352B404FF2FF75C7
:1039F0002B408D8906EA85052B43CD8906EA85058E
:103A00002B4383800483CD880587028470BD00002A
:103A1000002C0140003401400A460021018B4FF286
:103A2000FF7319404FF6FF7303EA02231943018322
:103A30007047000070B5002400220023058C4FF66B
:103A4000FF6635400584028C8388848B4FF68F7522
:103A50002C404FF6FC752C400D882C434FF6FF553B
:103A60002A400D894FF6FF7606EA05252A434D8840
:103A700006EA05252A43154DA84202D0144DA84256
:103A80001DD14FF2FF752A404D894FF6FF7606EAA9
:103A900005252A434FF6FF352A408D8806EA05257D
:103AA0002A434EF6FF752B404DF6FF752B408D894E
:103AB00006EA05152B43CD8906EA05152B438380BD
:103AC0008483CD888587028470BD0000002C01406E
:103AD000003401400A460021818B4FF6F7731940EC
:103AE000114381837047000070B500220023002439
:103AF000058C4EF6FF7635400584038C8488828BD6
:103B000048F6FF752A404FF6FF452A400D884FF6CC
:103B1000FF7606EA05252A434DF6FF752B400D89F1
:103B200006EA05352B434D8806EA05352B430B4D38
:103B3000A84202D00A4DA84208D14BF6FF752C408E
:103B40008D894FF6FF7606EA85152C4384808283A3
:103B5000CD88A0F84050038470BD0000002C0140C7
:103B6000003401400A460021818B4FF2FF73194057
:103B70004FF6FF7303EA022319438183704781865E
:103B800070470187704781877047A0F840107047E1
:103B9000002202881D4B98420ED01D4B98420BD03C
:103BA000B0F1804F08D01B4B984205D01A4B984279
:103BB00002D01A4B984204D14FF68F731A404B88AB
:103BC0001A43174B984207D0164B984204D04FF631
:103BD000FF431A40CB881A4302808B8883850B8869
:103BE00003850A4B98420BD0094B984208D00E4BE4
:103BF000984205D00D4B984202D00D4B984201D10E
:103C00000B7A03860123838270470000002C014059
:103C1000003401400004004000080040000C004057
:103C200000100040001400400040014000440140EA
:103C3000004801402DE9F05F05464FF0000B0124DC
:103C40001DE0204850F82410601E1E4A42F8201043
:103C5000204604F0A3FF81461A4850F82410484635
:103C600004F0FCFF0746584604F098FF80463946AA
:103C700004F0F4FD064604F055FF8346641C052C51
:103C8000DFDB104805611049284604F0E7FF0646CF
:103C9000584604F083FF0746314604F0DFFD044632
:103CA00004F040FF8346584604F035FA804600226F
:103CB000064B04F07BF8064603F08AFF8246504626
:103CC000BDE8F09FA82F00200000A04000002E407B
:103CD000024610480068104B1B68181A0E4B1860FB
:103CE000002107E00B4B481C53F8200043F821004B
:103CF000481CC1B20429F5DB064802610069064B85
:103D00001B681844044B186018460068052390FB94
:103D1000F3F07047802D0020580100202DE9F04776
:103D200081460C462046FFF785FF824651464846AD
:103D300005F091F80C4948600A465168106904F092
:103D40008DFF0949C861C86904F05CFD074600227F
:103D5000064B04F047FA054603F03AFF02490860B3
:103D600008460068BDE8F087382F00200000F03FCB
:103D7000024611480068114B1B68181A0F4B186057
:103D8000002107E00C4B481C53F8200043F82100A9
:103D9000481CC1B20329F5DB0748C260C068074B65
:103DA0001B681844054B186018460368D81703EBC6
:103DB0009070801070470000942D00205C0100205E
:103DC00015E00B490B48FDF79AFA0A210120FDF78F
:103DD000A1FD0A210420FDF73BFD0A210020FDF78B
:103DE00007FD00F047FA4FF47A7002F01BFFE8E796
:103DF000390100203801002010B540F22551064855
:103E000000F05CF930B1044800F014FAC4B2204666
:103E100000F01EF810BD00000038014010B5024649
:103E2000002000BF04E0135C064C2354431CD8B2AE
:103E30008842F8DB0023044C23600123034C2370E9
:103E400010BD0000C4010020500100204F010020DF
:103E500010B504462448007880B9FB2C0ED101200F
:103E6000214908700020214908700846017800782F
:103E7000401C1E4A10701E48445433E01A48007813
:103E800001280DD1FC2C0BD10220174908701748CE
:103E900001780078401C154A10701548445421E000
:103EA0001148007802281AD1104801780078401C87
:103EB0000E4A10700E484454104600780A2801DA61
:103EC000FD2C0FD10948007809280BDB002006499A
:103ED0000870064801780648FFF7A0FF02E00020BE
:103EE0000149087010BD0000560000205500002058
:103EF000E801002010B540F22551064800F0DEF838
:103F000030B1044800F096F9C4B2204600F01EF823
:103F100010BD00000044004010B50246002000BF64
:103F200004E0135C064C2354431CD8B28842F8DBEF
:103F30000123044C23700023034C238010BD000098
:103F4000D82C00204E0100207001002010B504463E
:103F50001D48007840B9A62C06D101201A490870E6
:103F600000201A4908702EE017480078012808D16F
:103F70006A2C06D1022014490870002013490870E9
:103F800021E01148007802281AD110480178007801
:103F9000401C0E4A10700E484454104600780A28FF
:103FA00001DAAA2C0FD10948007807280BDB002082
:103FB00005490870054801780548FFF7ADFF02E0A4
:103FC00000200149087010BDF9000020F800002011
:103FD000E72C002010B540F22441194800F06EF89B
:103FE00068B3174800881648001D0088002115484E
:103FF000FDF7F6F91348FDF7A5FAC0F128001249BC
:10400000087012480078552808D110484078512887
:1040100004D1084601780D4800F01AF828210B4811
:10402000FCF72FFA40F22441054800F023F828213C
:104030000448FDF7C8FA01210248FDF7D1F910BD87
:10404000004800403000024020010020FC2C0020ED
:1040500070B505460E46002400BF04E0285D044903
:104060000855601CC4B2B442F8DBFDF7F9FD70BD21
:10407000242D002010B50022002340F66A14A1422E
:1040800000D100BF0A1201249440A3B2DC43048093
:1040900010BD21B1828942F40052828104E08289FC
:1040A0004DF6FF731A40828170471AB1838A0B4321
:1040B000838202E0838A8B438382704770B5024615
:1040C000002400230025002040F66A16B14200D1EA
:1040D00000BFC1F3421501F01F03012606FA03F3E6
:1040E000012D02D19689334006E0022D02D1168AB5
:1040F000334001E0968A33400C12012606FA04F49C
:104100001688344013B10CB1012000E0002070BDCE
:10411000F0B50346002400260025002040F66A176B
:10412000B94200D100BF1846C1F3421401F01F0686
:10413000012707FA06F5012C01D10C3004E0022C0E
:1041400001D1103000E014301AB107682F43076026
:1041500002E00768AF430760F0BD00002DE9F047BB
:1041600086B005460E460024A24600BFA1460027A1
:10417000B08900B100BF2F462C8A4CF6FF70044076
:10418000F08804432C82AC894EF6F3100440B088CA
:1041900031890843718908430443AC81AC8A4FF6E6
:1041A000FF400440B0890443AC8201A8FFF7C0F887
:1041B0001F48874202D1DDF810A001E0DDF80CA015
:1041C000A88900F4004040B10AEBCA0000EB0A10D5
:1041D00031684900B0FBF1F807E00AEBCA0000EBD8
:1041E0000A1031688900B0FBF1F86420B8FBF0F0E8
:1041F00004012009642101FB1089A88900F4004012
:1042000040B1322000EBC900B0FBF1F000F0070034
:10421000044308E0322000EB09106421B0FBF1F008
:1042200000F00F0004432C8106B0BDE8F0870000C9
:104230000038014001468888C0F30800704700003C
:1042400000B585B06A4600210648FCF775FE0649B0
:10425000C1F814D0084605490860FDF7A3FB05B076
:1042600000BD000000640040BC2C0020E0000020E5
:1042700000BFFEE710B5B12014490870B2204870A5
:1042800013480078887013480078C8701248007886
:104290000871124800784871114800788871B3207D
:1042A000C8711048007801280FD100200D4908700E
:1042B00000210D48FDF794F80C4801780A48FDF7F5
:1042C00082F901210848FDF78BF810BDB4010020E8
:1042D0003401002035010020360100203801002083
:1042E000390100204D000020440002404E00002013
:1042F0002DE9F05F05464FF0000A012416E01A4848
:1043000050F82410601E184A42F82010204604F08D
:1043100045FC0746144850F82410384604F09EFC2B
:104320000646514604F09AFA8246641C042CE6DBE9
:104330000D48C5604FF08141284604F08FFC0446CB
:10434000514604F08BFA8246504604F05BFA8046F0
:104350000022064B03F02AFD064603F039FC834693
:104360005846BDE8F09F0000982F00200000244030
:104370002DE9F04F85B004468B4691469A4651464A
:10438000484604F06BFA04905946049804F06EFD18
:104390000490A06A04F036FA05464FF066323B4BB3
:1043A00003F020FFCDE90201049804F02BFA054642
:1043B0004FF03332364B03F015FFCDE90001DDE954
:1043C000022303F037FC074603F002FCA062A06A58
:1043D000FFF78EFFE0622F49E06A04F0ADFA6060FB
:1043E0002C49606804F0A8FA0546216A04F036FA00
:1043F00020622949206A04F0FDFC01D2264820628F
:104400002649206A04F0F6FB01D224482062D4E950
:10441000010104F02BFD05461E4904F08DFA60628F
:10442000616AA06904F01AFC0646216A606904F01A
:1044300015FC07466168206904F010FC8046394687
:1044400004F00CFA0546314604F008FAE061E06930
:1044500004F0D8F907460022114B03F0C3FE0546CD
:1044600003F0B6FB20600F49206804F0C3FC01D2C2
:104470000C4820600C49206804F0BCFB01D20A48BB
:104480002060206805B0BDE8F08F00006666E63F5A
:104490003333D33F0000C84200002041000020C158
:1044A0000000F03F0000A0410000A0C1490050EA18
:1044B000C12018BF04204A0D18BF40F0010040F28F
:1044C000FF72B2EB515F08BF40F00200012808BF45
:1044D000052070472DE9F0414F1E00EBC70104464F
:1044E000D1E9000115461E4637F006020DD02A46D6
:1044F000334603F077FE7F1E04EBC703D3E90023A6
:1045000003F098FB37F00602F1D1022F25D0042FDB
:1045100013D0062F18BFBDE8F0812A46334603F0BA
:1045200061FED4E90A2303F085FB2A46334603F0F3
:1045300059FED4E9082303F07DFB2A46334603F0F5
:1045400051FED4E9062303F075FB2A46334603F0F7
:1045500049FED4E9042303F06DFB2A46334603F0F9
:1045600041FED4E9022303F065FB2A46334603F0FB
:1045700039FED4E90023BDE8F04103F05BBB000045
:10458000002213461046014903F010BC0000F03F22
:10459000012204F012BD03F04DBB00221346104669
:1045A000114603F003BC40F2013200204FF0E0411D
:1045B00004F003BD024A0020110704F0FEBC000015
:1045C00001FDFFFF00BF704770B504460D46294648
:1045D000206804F00FFC00D2256085F000463046CC
:1045E000216804F007FC02D285F00040206070BD15
:1045F0002DE9F04D0546DFF8388221F000408D4F5F
:1046000082B00C46404520DBA0EB080129430BD0CB
:104610008949884201DC10D17DB102B0284621468B
:10462000BDE8F04DFFF7B4BF002CC7BF0020014626
:104630008248394602B0BDE8F08D0120FBF751FFFA
:1046400002B0BDE8F04DFFF7A8BF7D49884244DACB
:104650007C498142A1BF79487B4902B0BDE8F08D19
:104660002A4623461046194603F0BCFD83460246FF
:1046700076480E460B4606217844FFF72BFF5A4634
:10468000334603F0AFFD074671488A465A46334623
:1046900004217844FFF71EFF5A46334603F0A2FD7B
:1046A0000022434603F0C6FA02460B4638465146FE
:1046B00003F07CFB2A46234603F094FD654A664BD3
:1046C00003F0C4FE2A46234603F0C0FE02B05B4A54
:1046D000BDE8F04D5C4B03F0B9BE002C4FF000027A
:1046E0004BDA464643462846214603F0A3FA4FF0EC
:1046F000FF3204F062FC0446024658480D460B4661
:1047000006217844FFF7E6FE22462B4603F06AFDB9
:10471000804653488A4622462B4604217844FFF7B8
:10472000D9FE22462B4603F05DFD0022334603F0FE
:1047300081FA06468B462046294601F0C1FF044611
:104740000D4632465B464046514603F02FFB22465B
:104750002B4603F047FD3F4A3F4B03F069FF2246DB
:104760002B4603F067FA012204F027FC02B03B4617
:10477000BDE8F04D314A03F069BE2D4B2846214675
:1047800003F064FE4FF0FF3204F017FC05460E46BE
:1047900001F096FF00270C4680463A460B4603F090
:1047A00049FA82468B463A4623461046194603F09C
:1047B00019FD2A46334603F049FE52465B4603F094
:1047C000F5FA824627488B462A4633460621784426
:1047D000FFF780FE2A46334603F004FDCDE90001D1
:1047E00021482A46334604217844FFF773FE2A46BF
:1047F000334603F0F7FC00220D4B03F01BFA024690
:104800000B46DDE9000103F0D1FA4246234603F0EE
:10481000E9FC52465B4603F00DFA3A46234603F0A4
:1048200009FA02B00122BDE8F04D04F0C6BB000059
:104830000000F03FFB2109400000F07F182D445498
:104840000000E03F0000603CFB21F93FE451000024
:10485000FA510000075C143326A6913C5A5100001F
:10486000705100008E500000A450000008B54FF4B5
:10487000A060FEF739F800F065F9FCF7A7FE4FF4E9
:10488000E13001F0D9FF4FF4E130FDF7F7FA4FF4D2
:10489000E130FDF75FF9472144F61F60FEF76EFC3B
:1048A00000F006FB472144F61F60FEF759FF002089
:1048B0000223082207210090FCF7C2FA41F61F41AB
:1048C0006320FEF709FFFCF7C5FCFCF7EFF8FEF7E5
:1048D00045F908BD2DE9F04D8D4F21F0004A86B015
:1048E00005460C46BA452ADBAAEB070028430AD046
:1048F0008848824501DC1AD1CDB106B02846BDE812
:10490000F04DFFF745BE844A844B284603F06AFC0D
:1049100007460E46824A834B2846214603F062FC36
:1049200006B03A463346BDE8F04D03F083B90120A6
:10493000FBF7D7FD06B0BDE8F04DFFF72EBE7A4875
:10494000824542DABAF1795F0BDA2846FFF7AEFD0D
:10495000042808BFFFF72EFE284606B02146BDE812
:10496000F08D2A460B46104603F03CFC8346024677
:104970006E480E460B4606217844FFF7ABFD5A46BB
:10498000334603F02FFC804669488A465A46334630
:1049900004217844FFF79EFD5A46334603F022FC7B
:1049A00000223B4603F046F902460B46404651467C
:1049B00003F0FCF92A46234603F014FC06B02A460D
:1049C0002346BDE8F04D03F035B9284624F00041F8
:1049D00000223D463B4603F039FD4FF0FF3204F024
:1049E000ECFA0646024653480F460B460621784429
:1049F000FFF770FD32463B4603F0F4FBCDE90001C2
:104A00004D4832463B4604217844FFF763FD324669
:104A10003B4603F0E7FB00222B4603F00BF98346ED
:104A200002913046394601F04BFE804643480D4620
:104A3000504517DCDDE900015A46029B03F0B6F948
:104A400042462B4603F0CEFB42462B4603F0F2F8DB
:104A5000012204F0B2FA304A304B03F0E9FD304A4B
:104A6000304B4CE04FF0000A52460B46404603F0F4
:104A7000E1F8CDE9031052462B461046194603F0E3
:104A8000B1FB32463B4603F0E1FCDDE9033203F0C3
:104A90008DF906460F46DDE900015A46029B03F0F8
:104AA00085F98346009101223046394604F085FAA3
:104AB000194A1A4B03F0CAFC06460F46012240462B
:104AC000294604F07AFA5A46009B03F08BFB3246E3
:104AD0003B4603F0ADFD06460F46012250462946EF
:104AE00004F06BFA0E4DDFF858802A46434603F077
:104AF000ADFC32463B4603F0A9FC2A46434603F090
:104B0000A5FC002CD8BF81F0004106B0BDE8F08DB7
:104B10000000F03F0000F07F075C143326A6913CB4
:104B2000182D4454FB21F93F0000E03F344F0000B2
:104B30004A4F0000BE4E0000D44E00003333EF3F1A
:104B4000FB21E93F10B50420FEF77AFD104800680C
:104B50001049B0FBF1F0104908700D4800680D498C
:104B6000B0FBF1F44FF47A70444301200B49088004
:104B70004FF0E020006940F002004FF0E0210861B2
:104B800008464461006940F00100086110BD000062
:104B90003400002040420F00480000204A0000205E
:104BA00070B5044602F0BAFD012810D00B48008809
:104BB000844206D309480088B4FBF0F5284602F089
:104BC00031F806480088B4FBF0F100FB11444FF4C3
:104BD0007A7104FB01F000F003F870BD4A00002078
:104BE00070B5034600224FF0E02675690D4E367809
:104BF00003FB06F44FF0E026B16910E04FF0E02629
:104C0000B06988420BD0884202D20E1A324402E0C8
:104C10002E1A0E4432440146A24200D300E0EDE7D2
:104C200000BF70BD4800002000BF054A128802F096
:104C30004002002AF9D0C2B2014B1B1D1A807047F6
:104C400000380140028942814A69127B4B69DB7A54
:104C500042EA032202814A69937B527B43EA0222A1
:104C600012B24280428802804A69137CD27B43EAB6
:104C7000022212B26FF0040392FBF3F212B28280AE
:104C80004A69527C827102894389D21AB2F5805FE7
:104C900003DD0269521E026108E002894389D21ACB
:104CA00012F5805F02DA0269521C0261038902690F
:104CB00003EB42328389D21A426170474A69127B00
:104CC0004B69DB7A42EA03220281028982817047C2
:104CD0001CB5FFF7CBFD0748012100238022CDE959
:104CE000001005A1074802F0E9FC02F0F5F80020E9
:104CF0001CBD00000000002073746172745F746159
:104D0000736B00000D67000810B50246012000E03B
:104D100050430B1EA1F10104E1B2F9D110BD2DE900
:104D2000F04704460E461546266265613146284620
:104D300004F09CF8E0620021206D03F0BFFE11D06A
:104D40000021E06A04F056F801D2E06A02E0E06A6D
:104D500080F000400746216D04F04CF802D200209C
:104D6000BDE8F0870021606D03F0A8FE10D000219F
:104D7000E06A04F03FF801D2E06A02E0E06A80F005
:104D800000400746616D03F035FF01D20020E7E7E0
:104D9000A06D032834D1E16A206803F05FFF20632F
:104DA000E16A606803F05AFF0746616B03F056FD45
:104DB0006063D4E90A1004F059F80746A16803F0CB
:104DC0004DFFA063206E03F001FF0746394604F152
:104DD0003400FFF7F9FBD4E90C0103F03FFD07466F
:104DE000A16B03F03BFDE063E06D03F0EFFE0746CF
:104DF000394604F13C00FFF7E7FBE06B206444E038
:104E0000A06D042841D1D4E90A1004F02FF8074618
:104E1000216803F023FF2063E16A606803F01EFF4E
:104E200060634FF08040A16A03F018FF8146E16A99
:104E300004F011F88046616A03F010FD0746A1688E
:104E400003F00CFFA063206E03F0C0FE0746394656
:104E500004F13400FFF7B8FBD4E90C0103F0FEFCC9
:104E60000746A16B03F0FAFC6064616CE06C03F030
:104E7000F5FCA064E06D03F0A9FE0746394604F195
:104E80004800FFF7A1FBA06CE064A06A6062E16AE1
:104E9000A162E069A061216AE1612069E060616965
:104EA0002161A06D032801D1E06B59E7A06C57E7A1
:104EB0003EB5002415E0002028494FF07F52CDE98F
:104EC0000021029004EBC40101EB4101244A02EBF2
:104ED000810040F6B83342F210720321FEF730F938
:104EE000641C022CE7DB00201E49086048608860D3
:104EF000C86108621C4808611C4848611C488861F8
:104F000000201C49086048608860C8610862086128
:104F1000486188611849086048608860C861086213
:104F200016480861164848610020886115490860E4
:104F300048608860C86108621348086100204861C1
:104F400088611249086048608860C8610862034847
:104F500008610F484861002088613EBDCDCCCC3D42
:104F6000D02D0020D82E00200000914300004841A1
:104F700000004041A82E0020082F00200AD7A3BD22
:104F80000AD723BC382F0020CDCC4CBF682F00207F
:104F90008FC2753D70B55D480088401C5B49088034
:104FA0005B480068401C5A490860FEF71BFBFEF78F
:104FB00039F9FEF7E7FA5748007800286AD05648D2
:104FC000007800284FD15549B1F92C10484203F020
:104FD000E5FD04465149B1F9000003F0DFFD054647
:104FE0004F48006803F0DAFD064623462A4631465C
:104FF0004C48FFF7BDF94C4908604C4801684A48E5
:10500000006803F02BFC04464948036849482146E0
:1050100002684948FBF798FD48490860484800681D
:1050200003F0BCFD0446474801682046FEF776FEC3
:1050300045490860084601684048006803F00EFCD6
:10504000044603F06FFD414908603F4801683B4852
:10505000006803F00BFF80F00044204603F062FD7F
:105060003B4908601FE02E49086800EBD0714A10E8
:105070003349096802EB4101344A11602849086844
:1050800000EBD0714A102E490968C2EB4101304A49
:10509000116008E00020284908622E4908622B4967
:1050A00008602B4908602948006803F077FD044632
:1050B0001A49B1F9000003F071FD05462246294660
:1050C0002548FFF72CFE2248006803F067FD0446E0
:1050D0001249B1F92C0003F061FD0546224629462C
:1050E0001D486C30FFF71BFE1B49D1F8A80003F0E8
:1050F00019FD04B21849C86B03F014FD05B2002372
:105100001A462146284601F0A5FA70BD700100201C
:10511000500100208401002055010020302B002088
:1051200074010020082F0020900100207C01002045
:105130000801002014010020D82E00208801002042
:105140007801002010010020940100206801002057
:105150006C010020A82E0020D02D002070B504ACDA
:1051600070CC0366C265816504604560866070BD71
:1051700001604260836070472DE9F04D1D460C468A
:1051800098B0174621F0004123F00043002814BFD7
:105190004FF0010C4FF0000C0CEB440CFE4A0CEBF2
:1051A00002064FEA620C66452BD33E0018BF01266B
:1051B00006EB45061644F94A964222D3F84A53EACA
:1051C000070C02D0944205D148B918B0002011460E
:1051D000BDE8F08D002808BF4FF0000C01D04FF063
:1051E000010C0CEB440212F5001F0AD8002F14BF6B
:1051F0004FF0010C4FF0000C0CEB450212F5001FB4
:1052000007D918B03A462B462146BDE8F04DFFF7C6
:10521000C2B90022DFF88CA3002CB8BF534526DAB0
:10522000DFF884C36345A8BF022220DADFF870C329
:105230009C451CDCDFF874C30CEB235CBCF1140F41
:1052400008DDCCF1340627FA06FC0CFA06F6BE425D
:105250000DD108E05FB9CCF1140623FA06FC0CFA74
:1052600006F69E4203D10CF00102C2F1020251EA9D
:10527000000C19D1002D17DA002C18BF022A01D01A
:10528000012A07D00220FBF72CF918B0BDE8F04D39
:10529000FFF776B90220FBF724F9FFF771F918B090
:1052A00081F00041BDE8F08DB7F1000C6CD15345A1
:1052B00025D104F1804212F5801201BF00280020A0
:1052C000B74918B008BFBDE8F08DB548884207DC83
:1052D000002DA1BF6046294618B0BDE8F08D07E05B
:1052E000281E05DA80F0004118B06046BDE8F08D58
:1052F000AF497944D1E9000118B0BDE8F08DDFF87D
:10530000A0C2634525D1002D1FDA19B1514512D134
:10531000D8B909E0002840F0EC82A24A214618B032
:1053200062F31E01BDE8F08D0020214618B060F345
:105330001E01BDE8F08D08DA18B02346BDE8F04D37
:1053400002460020614602F031BD18B02146BDE89A
:10535000F08D514518DAB5F1804F0DD0A5F1005C04
:10536000BCF1FF5C10D1B4F1000C0DDB18B061464C
:10537000BDE8F04D01F0A4B9234618B00246BDE8DF
:10538000F04D194602F02EBF060024F0004C3BD130
:10539000D9B1514533D1002C06DD002DA1BF00202D
:1053A000514618B0BDE8F08D002C01DD002D1BDB4F
:1053B000002C13DA002D11DB012A4FF0000014BF7E
:1053C00078497C4918B0BDE8F08D022A18BF002C3E
:1053D0000AD0012A08D1002C06DA0AE0002CB8BF56
:1053E000002D11DA012A04D0002018B00146BDE8D2
:1053F000F08D18B000204FF00041BDE8F08DA1F114
:105400004050B0F17F601AD0012000EBE47050EA08
:10541000020421D0624C521E4FF0000B104304BF17
:105420004FF0000B644C654883427CDD644A65485C
:1054300093421FDD884217DB002D25DB37E0002C6F
:1054400000DA4AB1022A0CBF01204FF0FF3018B039
:10545000BDE8F04D02F05FBE0120FBF742F818B046
:10546000BDE8F04DFFF799B84D4A8A4202DC002DA5
:105470000ADC1CE0814202DA002D18DA04E0484B15
:10548000994220DD002D12DD0220FBF72AF8FFF7FC
:105490008AF805460E46002253465846214602F039
:1054A000A1FE18B066F31E012846BDE8F08D02206B
:1054B000FBF717F8FFF77EF80A46214618B062F3AB
:1054C0001E01BDE8F08D00223046614603F0B0F8C1
:1054D00080460E466FF0010203F06FFD4FF055322B
:1054E000394B02F0B3FF4246334602F07BFE002206
:1054F000364B02F0ABFF82464246334604911046DB
:10550000194602F06FFE5246049B02F06BFE8A467B
:1055100000904FF0C0422E4B4046314602F062FEF2
:105520002C4A2B4B00E027E0CDE9060151460098BC
:1055300002F058FE82460191274A284B40463146E8
:1055400002F050FE5246019B03F072F882460B4671
:1055500002460591DDE9060102F06CFBDDE9062358
:1055600000268846304603F063F85246059B02F059
:105570006DFF024600F07EB90020B1F5801F07DA0A
:1055800035223046614603F018FD06466FF03400C0
:1055900000EB215024E00000FFFF1F00FFFF0F0081
:1055A0000000F03F0000F07F0000404301FCFFFFDF
:1055B000924600000000F0FF0000F0BF0000E04154
:1055C0000000F043FFFFEF3F5555D53F0000E03F9F
:1055D0004715F73FFE822B6544DF5DF80BAE543E66
:1055E000A0F2FF300190C1F3130040F07F6141F061
:1055F00040510291FE498842D8BF002004DDFD4998
:105600008142C8BF012001DD0D9008E000200D900F
:105610000198401C01900298A0F580100290029918
:10562000F54878440B910D9900EBC100D0E90023B7
:105630000F9330460A920B9902F0FAFFCDE906016A
:10564000DDE90A2130460F9B02F0F4FA02460B46D0
:105650000020EA4902F0AAFB059102460B460090A1
:10566000DDE9060102F0BEFD1490E5488A464FF0E0
:10567000000878440299006812904FF0005040EA08
:1056800061010D980F9B01EB804000F5002109910D
:105690000A9A129802F0CCFF32460B9B02F0D6FE1B
:1056A0004246534602F09EFD064602914046514650
:1056B000099B129A02F096FDDDE9062302F0C6FE70
:1056C0003246029B02F0B4FF059B009A02F08AFD6D
:1056D0000091149A049053461046194602F082FD38
:1056E00006460246C7480B46029106217844FEF75B
:1056F000F1FECDE90510029B32461046194602F034
:1057000071FDDDE9053202F06DFD05910646534657
:1057100040461946149A02F08DFA009B049A02F052
:1057200061FD3246059B02F085FACDE9051042463F
:1057300053461046194602F055FD0022B24B029125
:105740000A9002F077FADDE9053202F073FA0E46AC
:105750004246AD4B404602F06BFF029B0A9A02F0B4
:1057600067FFDDE9053202F071FE424602910A90C0
:1057700033461046514602F035FDCDE90601534649
:10578000149A02990A9802F02DFD8A460290334637
:1057900042460099049802F025FD5346029A02F011
:1057A00049FA82460B4602460591DDE9060102F000
:1057B00041FADDE9062300208846064602F038FF5C
:1057C0005246059B02F042FE824609914FF060422C
:1057D0008E4B3046414602F005FD049006918C4AFE
:1057E0008A4B5046099902F0FDFC82460291894A93
:1057F000894B3046414602F0F5FC5246029B02F0CE
:1058000019FA864B7B440D9A03EBC203D3E90023BC
:1058100002F010FA0E900791019802F07CFC0591BD
:10582000DDE9061382460E9A049802F003FA7C4AD8
:105830007A440D9B02EBC303D3E900230093029249
:1058400002F0F8F95246059B02F0F4F9002688466A
:1058500052463046059B02F0EBFE009B029A02F096
:10586000E7FE069B049A02F0E3FE079B0E9A02F005
:10587000EDFD024600200B4602903846294602F014
:10588000B1FC824601912B4638461946029A02F035
:10589000CFFE3246434602F0A5FC5246019B02F081
:1058A000C9F907468A46324643462946029802F01D
:1058B00099FC05460E463A46534602F0BBF9594A52
:1058C0008846914221DBA8EB020353EA000210D183
:1058D0002A46334602F0ACFECDE90401524A534B4E
:1058E0003846514602F0A6F9DDE9042302F078FDBE
:1058F00021D20220FAF7F5FDFEF755FE0A462146B1
:1059000018B062F31E01BDE8F08D494B28F000424B
:105910009A4210D3474A08EB020353EA00027FF48D
:10592000C6AD2A46334602F083FE3A46534602F09D
:1059300057FD7FF6BCAD0022019228F000403E49A1
:105940003E4A01EB2051824223DA481C4FF4801179
:1059500021FA00F040443A4AC0F30A517A44394BE4
:10596000A1F2FF31CB4020EA0303C0F3130040F45F
:105970008010C1F11401C84012680190B8F1000F05
:10598000BCBF404201902846314602F051FE054618
:105990000E462A4633463846514602F04BF94FF040
:1059A00000084246284B4046059102F01BFCCDE919
:1059B0000601264A264B4046059902F013FC009149
:1059C00002902A4633464046059902F031FE3A4697
:1059D000534602F03BFD1F4A1F4B02F003FC009BA5
:1059E000029A02F027F90746884602460B4635E040
:1059F0008E9803007AB60B00DA4200000000F03FF8
:105A000012430000404200000000084009C7EE3F7A
:105A1000FD033ADCF5015B14E02F3EBE18410000A7
:105A2000DC40000000009040FE822B654715973C4B
:105A300000CC904000346F3F01FCFFFF0000E03FCE
:105A400028400000FFFF0F00432EE63F396CA80CF2
:105A5000615C20BEEF39FAFE422EE63FDDE9060129
:105A600002F0E8F8DDE9062305460E4602F0E0FD07
:105A70003A46434602F0EAFC0F462A463346009077
:105A80001046194602F0AEFB824602462E48884672
:105A90000B4605217844FEF71DFD5246434602F0B1
:105AA000A1FB2A46334602F0D1FC80468A463B469B
:105AB00028463146009A02F095FB3B46009A02F0D8
:105AC000B9F80691009000224FF0804340465146BD
:105AD00002F0AEFD0F460C90424653462846314632
